{
  "contractName": "Condos",
  "abi": [
    {
      "inputs": [],
      "stateMutability": "payable",
      "type": "constructor",
      "payable": true
    },
    {
      "anonymous": false,
      "inputs": [
        {
          "indexed": true,
          "internalType": "address",
          "name": "owner",
          "type": "address"
        },
        {
          "indexed": true,
          "internalType": "address",
          "name": "approved",
          "type": "address"
        },
        {
          "indexed": true,
          "internalType": "uint256",
          "name": "tokenId",
          "type": "uint256"
        }
      ],
      "name": "Approval",
      "type": "event"
    },
    {
      "anonymous": false,
      "inputs": [
        {
          "indexed": true,
          "internalType": "address",
          "name": "owner",
          "type": "address"
        },
        {
          "indexed": true,
          "internalType": "address",
          "name": "operator",
          "type": "address"
        },
        {
          "indexed": false,
          "internalType": "bool",
          "name": "approved",
          "type": "bool"
        }
      ],
      "name": "ApprovalForAll",
      "type": "event"
    },
    {
      "anonymous": false,
      "inputs": [
        {
          "indexed": true,
          "internalType": "address",
          "name": "from",
          "type": "address"
        },
        {
          "indexed": true,
          "internalType": "address",
          "name": "to",
          "type": "address"
        },
        {
          "indexed": true,
          "internalType": "uint256",
          "name": "tokenId",
          "type": "uint256"
        }
      ],
      "name": "Transfer",
      "type": "event"
    },
    {
      "inputs": [],
      "name": "Id",
      "outputs": [
        {
          "internalType": "uint32",
          "name": "",
          "type": "uint32"
        }
      ],
      "stateMutability": "view",
      "type": "function",
      "constant": true
    },
    {
      "inputs": [
        {
          "internalType": "address",
          "name": "",
          "type": "address"
        }
      ],
      "name": "MDTrack",
      "outputs": [
        {
          "internalType": "uint32",
          "name": "",
          "type": "uint32"
        }
      ],
      "stateMutability": "view",
      "type": "function",
      "constant": true
    },
    {
      "inputs": [
        {
          "internalType": "address",
          "name": "to",
          "type": "address"
        },
        {
          "internalType": "uint256",
          "name": "tokenId",
          "type": "uint256"
        }
      ],
      "name": "approve",
      "outputs": [],
      "stateMutability": "nonpayable",
      "type": "function"
    },
    {
      "inputs": [
        {
          "internalType": "address",
          "name": "owner",
          "type": "address"
        }
      ],
      "name": "balanceOf",
      "outputs": [
        {
          "internalType": "uint256",
          "name": "",
          "type": "uint256"
        }
      ],
      "stateMutability": "view",
      "type": "function",
      "constant": true
    },
    {
      "inputs": [
        {
          "internalType": "uint256",
          "name": "tokenId",
          "type": "uint256"
        }
      ],
      "name": "getApproved",
      "outputs": [
        {
          "internalType": "address",
          "name": "",
          "type": "address"
        }
      ],
      "stateMutability": "view",
      "type": "function",
      "constant": true
    },
    {
      "inputs": [
        {
          "internalType": "address",
          "name": "owner",
          "type": "address"
        },
        {
          "internalType": "address",
          "name": "operator",
          "type": "address"
        }
      ],
      "name": "isApprovedForAll",
      "outputs": [
        {
          "internalType": "bool",
          "name": "",
          "type": "bool"
        }
      ],
      "stateMutability": "view",
      "type": "function",
      "constant": true
    },
    {
      "inputs": [],
      "name": "name",
      "outputs": [
        {
          "internalType": "string",
          "name": "",
          "type": "string"
        }
      ],
      "stateMutability": "view",
      "type": "function",
      "constant": true
    },
    {
      "inputs": [
        {
          "internalType": "uint256",
          "name": "tokenId",
          "type": "uint256"
        }
      ],
      "name": "ownerOf",
      "outputs": [
        {
          "internalType": "address",
          "name": "",
          "type": "address"
        }
      ],
      "stateMutability": "view",
      "type": "function",
      "constant": true
    },
    {
      "inputs": [
        {
          "internalType": "address",
          "name": "from",
          "type": "address"
        },
        {
          "internalType": "address",
          "name": "to",
          "type": "address"
        },
        {
          "internalType": "uint256",
          "name": "tokenId",
          "type": "uint256"
        }
      ],
      "name": "safeTransferFrom",
      "outputs": [],
      "stateMutability": "nonpayable",
      "type": "function"
    },
    {
      "inputs": [
        {
          "internalType": "address",
          "name": "from",
          "type": "address"
        },
        {
          "internalType": "address",
          "name": "to",
          "type": "address"
        },
        {
          "internalType": "uint256",
          "name": "tokenId",
          "type": "uint256"
        },
        {
          "internalType": "bytes",
          "name": "_data",
          "type": "bytes"
        }
      ],
      "name": "safeTransferFrom",
      "outputs": [],
      "stateMutability": "nonpayable",
      "type": "function"
    },
    {
      "inputs": [
        {
          "internalType": "address",
          "name": "operator",
          "type": "address"
        },
        {
          "internalType": "bool",
          "name": "approved",
          "type": "bool"
        }
      ],
      "name": "setApprovalForAll",
      "outputs": [],
      "stateMutability": "nonpayable",
      "type": "function"
    },
    {
      "inputs": [
        {
          "internalType": "bytes4",
          "name": "interfaceId",
          "type": "bytes4"
        }
      ],
      "name": "supportsInterface",
      "outputs": [
        {
          "internalType": "bool",
          "name": "",
          "type": "bool"
        }
      ],
      "stateMutability": "view",
      "type": "function",
      "constant": true
    },
    {
      "inputs": [],
      "name": "symbol",
      "outputs": [
        {
          "internalType": "string",
          "name": "",
          "type": "string"
        }
      ],
      "stateMutability": "view",
      "type": "function",
      "constant": true
    },
    {
      "inputs": [
        {
          "internalType": "uint256",
          "name": "tokenId",
          "type": "uint256"
        }
      ],
      "name": "tokenURI",
      "outputs": [
        {
          "internalType": "string",
          "name": "",
          "type": "string"
        }
      ],
      "stateMutability": "view",
      "type": "function",
      "constant": true
    },
    {
      "inputs": [
        {
          "internalType": "address",
          "name": "from",
          "type": "address"
        },
        {
          "internalType": "address",
          "name": "to",
          "type": "address"
        },
        {
          "internalType": "uint256",
          "name": "tokenId",
          "type": "uint256"
        }
      ],
      "name": "transferFrom",
      "outputs": [],
      "stateMutability": "nonpayable",
      "type": "function"
    },
    {
      "inputs": [
        {
          "internalType": "address",
          "name": "receiver",
          "type": "address"
        },
        {
          "internalType": "string",
          "name": "metadata",
          "type": "string"
        }
      ],
      "name": "createNFT",
      "outputs": [
        {
          "internalType": "uint32",
          "name": "",
          "type": "uint32"
        }
      ],
      "stateMutability": "nonpayable",
      "type": "function"
    },
    {
      "inputs": [
        {
          "internalType": "address",
          "name": "sender",
          "type": "address"
        },
        {
          "internalType": "address",
          "name": "receiver",
          "type": "address"
        },
        {
          "internalType": "uint32",
          "name": "transId",
          "type": "uint32"
        },
        {
          "internalType": "string",
          "name": "metadata",
          "type": "string"
        }
      ],
      "name": "transferNFT",
      "outputs": [],
      "stateMutability": "nonpayable",
      "type": "function"
    }
  ],
  "bytecode": "0x60806040526040518060400160405280600c81526020017f436f6e646f7320546f6b656e00000000000000000000000000000000000000008152506040518060400160405280600581526020017f434f4e444f000000000000000000000000000000000000000000000000000000815250816000908051906020019062000088929190620000cc565b508060019080519060200190620000a1929190620000cc565b5050506000600660006101000a81548163ffffffff021916908363ffffffff160217905550620001e1565b828054620000da90620001ab565b90600052602060002090601f016020900481019282620000fe57600085556200014a565b82601f106200011957805160ff19168380011785556200014a565b828001600101855582156200014a579182015b82811115620001495782518255916020019190600101906200012c565b5b5090506200015991906200015d565b5090565b5b80821115620001785760008160009055506001016200015e565b5090565b7f4e487b7100000000000000000000000000000000000000000000000000000000600052602260045260246000fd5b60006002820490506001821680620001c457607f821691505b60208210811415620001db57620001da6200017c565b5b50919050565b612da980620001f16000396000f3fe608060405234801561001057600080fd5b506004361061010b5760003560e01c80636352211e116100a2578063a561403311610071578063a5614033146102ca578063b88d4fde146102fa578063c87b56dd14610316578063e985e9c514610346578063fede6c29146103765761010b565b80636352211e1461023057806370a082311461026057806395d89b4114610290578063a22cb465146102ae5761010b565b806323b872dd116100de57806323b872dd146101aa57806339a090c9146101c657806342842e0e146101e4578063461623ff146102005761010b565b806301ffc9a71461011057806306fdde0314610140578063081812fc1461015e578063095ea7b31461018e575b600080fd5b61012a60048036038101906101259190611abf565b610392565b6040516101379190611b07565b60405180910390f35b610148610474565b6040516101559190611bbb565b60405180910390f35b61017860048036038101906101739190611c13565b610506565b6040516101859190611c81565b60405180910390f35b6101a860048036038101906101a39190611cc8565b61058b565b005b6101c460048036038101906101bf9190611d08565b6106a3565b005b6101ce610703565b6040516101db9190611d7a565b60405180910390f35b6101fe60048036038101906101f99190611d08565b610719565b005b61021a60048036038101906102159190611d95565b610739565b6040516102279190611d7a565b60405180910390f35b61024a60048036038101906102459190611c13565b61075c565b6040516102579190611c81565b60405180910390f35b61027a60048036038101906102759190611d95565b61080e565b6040516102879190611dd1565b60405180910390f35b6102986108c6565b6040516102a59190611bbb565b60405180910390f35b6102c860048036038101906102c39190611e18565b610958565b005b6102e460048036038101906102df9190611ebd565b61096e565b6040516102f19190611d7a565b60405180910390f35b610314600480360381019061030f919061204d565b610ac5565b005b610330600480360381019061032b9190611c13565b610b27565b60405161033d9190611bbb565b60405180910390f35b610360600480360381019061035b91906120d0565b610bce565b60405161036d9190611b07565b60405180910390f35b610390600480360381019061038b919061213c565b610c62565b005b60007f80ac58cd000000000000000000000000000000000000000000000000000000007bffffffffffffffffffffffffffffffffffffffffffffffffffffffff1916827bffffffffffffffffffffffffffffffffffffffffffffffffffffffff1916148061045d57507f5b5e139f000000000000000000000000000000000000000000000000000000007bffffffffffffffffffffffffffffffffffffffffffffffffffffffff1916827bffffffffffffffffffffffffffffffffffffffffffffffffffffffff1916145b8061046d575061046c82610d90565b5b9050919050565b606060008054610483906121f3565b80601f01602080910402602001604051908101604052809291908181526020018280546104af906121f3565b80156104fc5780601f106104d1576101008083540402835291602001916104fc565b820191906000526020600020905b8154815290600101906020018083116104df57829003601f168201915b5050505050905090565b600061051182610dfa565b610550576040517f08c379a000000000000000000000000000000000000000000000000000000000815260040161054790612297565b60405180910390fd5b6004600083815260200190815260200160002060009054906101000a900473ffffffffffffffffffffffffffffffffffffffff169050919050565b60006105968261075c565b90508073ffffffffffffffffffffffffffffffffffffffff168373ffffffffffffffffffffffffffffffffffffffff161415610607576040517f08c379a00000000000000000000000000000000000000000000000000000000081526004016105fe90612329565b60405180910390fd5b8073ffffffffffffffffffffffffffffffffffffffff16610626610e66565b73ffffffffffffffffffffffffffffffffffffffff16148061065557506106548161064f610e66565b610bce565b5b610694576040517f08c379a000000000000000000000000000000000000000000000000000000000815260040161068b906123bb565b60405180910390fd5b61069e8383610e6e565b505050565b6106b46106ae610e66565b82610f27565b6106f3576040517f08c379a00000000000000000000000000000000000000000000000000000000081526004016106ea9061244d565b60405180910390fd5b6106fe838383611005565b505050565b600660009054906101000a900463ffffffff1681565b61073483838360405180602001604052806000815250610ac5565b505050565b60076020528060005260406000206000915054906101000a900463ffffffff1681565b6000806002600084815260200190815260200160002060009054906101000a900473ffffffffffffffffffffffffffffffffffffffff169050600073ffffffffffffffffffffffffffffffffffffffff168173ffffffffffffffffffffffffffffffffffffffff161415610805576040517f08c379a00000000000000000000000000000000000000000000000000000000081526004016107fc906124df565b60405180910390fd5b80915050919050565b60008073ffffffffffffffffffffffffffffffffffffffff168273ffffffffffffffffffffffffffffffffffffffff16141561087f576040517f08c379a000000000000000000000000000000000000000000000000000000000815260040161087690612571565b60405180910390fd5b600360008373ffffffffffffffffffffffffffffffffffffffff1673ffffffffffffffffffffffffffffffffffffffff168152602001908152602001600020549050919050565b6060600180546108d5906121f3565b80601f0160208091040260200160405190810160405280929190818152602001828054610901906121f3565b801561094e5780601f106109235761010080835404028352916020019161094e565b820191906000526020600020905b81548152906001019060200180831161093157829003601f168201915b5050505050905090565b61096a610963610e66565b838361126c565b5050565b60006006600081819054906101000a900463ffffffff1680929190610992906125c0565b91906101000a81548163ffffffff021916908363ffffffff160217905550506109d384600660009054906101000a900463ffffffff1663ffffffff166113d9565b610a39600660009054906101000a900463ffffffff1663ffffffff1684848080601f016020809104026020016040519081016040528093929190818152602001838380828437600081840152601f19601f820116905080830192505050505050506115b3565b600660009054906101000a900463ffffffff16600760008673ffffffffffffffffffffffffffffffffffffffff1673ffffffffffffffffffffffffffffffffffffffff16815260200190815260200160002060006101000a81548163ffffffff021916908363ffffffff160217905550600660009054906101000a900463ffffffff1690509392505050565b610ad6610ad0610e66565b83610f27565b610b15576040517f08c379a0000000000000000000000000000000000000000000000000000000008152600401610b0c9061244d565b60405180910390fd5b610b2184848484611627565b50505050565b6060610b3282610dfa565b610b71576040517f08c379a0000000000000000000000000000000000000000000000000000000008152600401610b689061265f565b60405180910390fd5b6000610b7b611683565b90506000815111610b9b5760405180602001604052806000815250610bc6565b80610ba58461169a565b604051602001610bb69291906126bb565b6040516020818303038152906040525b915050919050565b6000600560008473ffffffffffffffffffffffffffffffffffffffff1673ffffffffffffffffffffffffffffffffffffffff16815260200190815260200160002060008373ffffffffffffffffffffffffffffffffffffffff1673ffffffffffffffffffffffffffffffffffffffff16815260200190815260200160002060009054906101000a900460ff16905092915050565b610c7385858563ffffffff166106a3565b610cc78363ffffffff1683838080601f016020809104026020016040519081016040528093929190818152602001838380828437600081840152601f19601f820116905080830192505050505050506115b3565b600760008673ffffffffffffffffffffffffffffffffffffffff1673ffffffffffffffffffffffffffffffffffffffff16815260200190815260200160002060006101000a81549063ffffffff0219169055600660009054906101000a900463ffffffff16600760008673ffffffffffffffffffffffffffffffffffffffff1673ffffffffffffffffffffffffffffffffffffffff16815260200190815260200160002060006101000a81548163ffffffff021916908363ffffffff1602179055505050505050565b60007f01ffc9a7000000000000000000000000000000000000000000000000000000007bffffffffffffffffffffffffffffffffffffffffffffffffffffffff1916827bffffffffffffffffffffffffffffffffffffffffffffffffffffffff1916149050919050565b60008073ffffffffffffffffffffffffffffffffffffffff166002600084815260200190815260200160002060009054906101000a900473ffffffffffffffffffffffffffffffffffffffff1673ffffffffffffffffffffffffffffffffffffffff1614159050919050565b600033905090565b816004600083815260200190815260200160002060006101000a81548173ffffffffffffffffffffffffffffffffffffffff021916908373ffffffffffffffffffffffffffffffffffffffff160217905550808273ffffffffffffffffffffffffffffffffffffffff16610ee18361075c565b73ffffffffffffffffffffffffffffffffffffffff167f8c5be1e5ebec7d5bd14f71427d1e84f3dd0314c0f7b2291e5b200ac8c7c3b92560405160405180910390a45050565b6000610f3282610dfa565b610f71576040517f08c379a0000000000000000000000000000000000000000000000000000000008152600401610f6890612751565b60405180910390fd5b6000610f7c8361075c565b90508073ffffffffffffffffffffffffffffffffffffffff168473ffffffffffffffffffffffffffffffffffffffff161480610feb57508373ffffffffffffffffffffffffffffffffffffffff16610fd384610506565b73ffffffffffffffffffffffffffffffffffffffff16145b80610ffc5750610ffb8185610bce565b5b91505092915050565b8273ffffffffffffffffffffffffffffffffffffffff166110258261075c565b73ffffffffffffffffffffffffffffffffffffffff161461107b576040517f08c379a0000000000000000000000000000000000000000000000000000000008152600401611072906127e3565b60405180910390fd5b600073ffffffffffffffffffffffffffffffffffffffff168273ffffffffffffffffffffffffffffffffffffffff1614156110eb576040517f08c379a00000000000000000000000000000000000000000000000000000000081526004016110e290612875565b60405180910390fd5b6110f68383836117fb565b611101600082610e6e565b6001600360008573ffffffffffffffffffffffffffffffffffffffff1673ffffffffffffffffffffffffffffffffffffffff16815260200190815260200160002060008282546111519190612895565b925050819055506001600360008473ffffffffffffffffffffffffffffffffffffffff1673ffffffffffffffffffffffffffffffffffffffff16815260200190815260200160002060008282546111a891906128c9565b92505081905550816002600083815260200190815260200160002060006101000a81548173ffffffffffffffffffffffffffffffffffffffff021916908373ffffffffffffffffffffffffffffffffffffffff160217905550808273ffffffffffffffffffffffffffffffffffffffff168473ffffffffffffffffffffffffffffffffffffffff167fddf252ad1be2c89b69c2b068fc378daa952ba7f163c4a11628f55a4df523b3ef60405160405180910390a4611267838383611800565b505050565b8173ffffffffffffffffffffffffffffffffffffffff168373ffffffffffffffffffffffffffffffffffffffff1614156112db576040517f08c379a00000000000000000000000000000000000000000000000000000000081526004016112d29061296b565b60405180910390fd5b80600560008573ffffffffffffffffffffffffffffffffffffffff1673ffffffffffffffffffffffffffffffffffffffff16815260200190815260200160002060008473ffffffffffffffffffffffffffffffffffffffff1673ffffffffffffffffffffffffffffffffffffffff16815260200190815260200160002060006101000a81548160ff0219169083151502179055508173ffffffffffffffffffffffffffffffffffffffff168373ffffffffffffffffffffffffffffffffffffffff167f17307eab39ab6107e8899845ad3d59bd9653f200f220920489ca2b5937696c31836040516113cc9190611b07565b60405180910390a3505050565b600073ffffffffffffffffffffffffffffffffffffffff168273ffffffffffffffffffffffffffffffffffffffff161415611449576040517f08c379a0000000000000000000000000000000000000000000000000000000008152600401611440906129d7565b60405180910390fd5b61145281610dfa565b15611492576040517f08c379a000000000000000000000000000000000000000000000000000000000815260040161148990612a43565b60405180910390fd5b61149e600083836117fb565b6001600360008473ffffffffffffffffffffffffffffffffffffffff1673ffffffffffffffffffffffffffffffffffffffff16815260200190815260200160002060008282546114ee91906128c9565b92505081905550816002600083815260200190815260200160002060006101000a81548173ffffffffffffffffffffffffffffffffffffffff021916908373ffffffffffffffffffffffffffffffffffffffff160217905550808273ffffffffffffffffffffffffffffffffffffffff16600073ffffffffffffffffffffffffffffffffffffffff167fddf252ad1be2c89b69c2b068fc378daa952ba7f163c4a11628f55a4df523b3ef60405160405180910390a46115af60008383611800565b5050565b6115bc82610dfa565b6115fb576040517f08c379a00000000000000000000000000000000000000000000000000000000081526004016115f290612ad5565b60405180910390fd5b806008600084815260200190815260200160002090805190602001906116229291906119b0565b505050565b611632848484611005565b61163e84848484611805565b61167d576040517f08c379a000000000000000000000000000000000000000000000000000000000815260040161167490612b67565b60405180910390fd5b50505050565b606060405180602001604052806000815250905090565b606060008214156116e2576040518060400160405280600181526020017f300000000000000000000000000000000000000000000000000000000000000081525090506117f6565b600082905060005b600082146117145780806116fd90612b87565b915050600a8261170d9190612bff565b91506116ea565b60008167ffffffffffffffff8111156117305761172f611f22565b5b6040519080825280601f01601f1916602001820160405280156117625781602001600182028036833780820191505090505b5090505b600085146117ef5760018261177b9190612895565b9150600a8561178a9190612c30565b603061179691906128c9565b60f81b8183815181106117ac576117ab612c61565b5b60200101907effffffffffffffffffffffffffffffffffffffffffffffffffffffffffffff1916908160001a905350600a856117e89190612bff565b9450611766565b8093505050505b919050565b505050565b505050565b60006118268473ffffffffffffffffffffffffffffffffffffffff1661198d565b15611980578373ffffffffffffffffffffffffffffffffffffffff1663150b7a0261184f610e66565b8786866040518563ffffffff1660e01b81526004016118719493929190612ce5565b6020604051808303816000875af19250505080156118ad57506040513d601f19601f820116820180604052508101906118aa9190612d46565b60015b611930573d80600081146118dd576040519150601f19603f3d011682016040523d82523d6000602084013e6118e2565b606091505b50600081511415611928576040517f08c379a000000000000000000000000000000000000000000000000000000000815260040161191f90612b67565b60405180910390fd5b805181602001fd5b63150b7a0260e01b7bffffffffffffffffffffffffffffffffffffffffffffffffffffffff1916817bffffffffffffffffffffffffffffffffffffffffffffffffffffffff191614915050611985565b600190505b949350505050565b6000808273ffffffffffffffffffffffffffffffffffffffff163b119050919050565b8280546119bc906121f3565b90600052602060002090601f0160209004810192826119de5760008555611a25565b82601f106119f757805160ff1916838001178555611a25565b82800160010185558215611a25579182015b82811115611a24578251825591602001919060010190611a09565b5b509050611a329190611a36565b5090565b5b80821115611a4f576000816000905550600101611a37565b5090565b6000604051905090565b600080fd5b600080fd5b60007fffffffff0000000000000000000000000000000000000000000000000000000082169050919050565b611a9c81611a67565b8114611aa757600080fd5b50565b600081359050611ab981611a93565b92915050565b600060208284031215611ad557611ad4611a5d565b5b6000611ae384828501611aaa565b91505092915050565b60008115159050919050565b611b0181611aec565b82525050565b6000602082019050611b1c6000830184611af8565b92915050565b600081519050919050565b600082825260208201905092915050565b60005b83811015611b5c578082015181840152602081019050611b41565b83811115611b6b576000848401525b50505050565b6000601f19601f8301169050919050565b6000611b8d82611b22565b611b978185611b2d565b9350611ba7818560208601611b3e565b611bb081611b71565b840191505092915050565b60006020820190508181036000830152611bd58184611b82565b905092915050565b6000819050919050565b611bf081611bdd565b8114611bfb57600080fd5b50565b600081359050611c0d81611be7565b92915050565b600060208284031215611c2957611c28611a5d565b5b6000611c3784828501611bfe565b91505092915050565b600073ffffffffffffffffffffffffffffffffffffffff82169050919050565b6000611c6b82611c40565b9050919050565b611c7b81611c60565b82525050565b6000602082019050611c966000830184611c72565b92915050565b611ca581611c60565b8114611cb057600080fd5b50565b600081359050611cc281611c9c565b92915050565b60008060408385031215611cdf57611cde611a5d565b5b6000611ced85828601611cb3565b9250506020611cfe85828601611bfe565b9150509250929050565b600080600060608486031215611d2157611d20611a5d565b5b6000611d2f86828701611cb3565b9350506020611d4086828701611cb3565b9250506040611d5186828701611bfe565b9150509250925092565b600063ffffffff82169050919050565b611d7481611d5b565b82525050565b6000602082019050611d8f6000830184611d6b565b92915050565b600060208284031215611dab57611daa611a5d565b5b6000611db984828501611cb3565b91505092915050565b611dcb81611bdd565b82525050565b6000602082019050611de66000830184611dc2565b92915050565b611df581611aec565b8114611e0057600080fd5b50565b600081359050611e1281611dec565b92915050565b60008060408385031215611e2f57611e2e611a5d565b5b6000611e3d85828601611cb3565b9250506020611e4e85828601611e03565b9150509250929050565b600080fd5b600080fd5b600080fd5b60008083601f840112611e7d57611e7c611e58565b5b8235905067ffffffffffffffff811115611e9a57611e99611e5d565b5b602083019150836001820283011115611eb657611eb5611e62565b5b9250929050565b600080600060408486031215611ed657611ed5611a5d565b5b6000611ee486828701611cb3565b935050602084013567ffffffffffffffff811115611f0557611f04611a62565b5b611f1186828701611e67565b92509250509250925092565b600080fd5b7f4e487b7100000000000000000000000000000000000000000000000000000000600052604160045260246000fd5b611f5a82611b71565b810181811067ffffffffffffffff82111715611f7957611f78611f22565b5b80604052505050565b6000611f8c611a53565b9050611f988282611f51565b919050565b600067ffffffffffffffff821115611fb857611fb7611f22565b5b611fc182611b71565b9050602081019050919050565b82818337600083830152505050565b6000611ff0611feb84611f9d565b611f82565b90508281526020810184848401111561200c5761200b611f1d565b5b612017848285611fce565b509392505050565b600082601f83011261203457612033611e58565b5b8135612044848260208601611fdd565b91505092915050565b6000806000806080858703121561206757612066611a5d565b5b600061207587828801611cb3565b945050602061208687828801611cb3565b935050604061209787828801611bfe565b925050606085013567ffffffffffffffff8111156120b8576120b7611a62565b5b6120c48782880161201f565b91505092959194509250565b600080604083850312156120e7576120e6611a5d565b5b60006120f585828601611cb3565b925050602061210685828601611cb3565b9150509250929050565b61211981611d5b565b811461212457600080fd5b50565b60008135905061213681612110565b92915050565b60008060008060006080868803121561215857612157611a5d565b5b600061216688828901611cb3565b955050602061217788828901611cb3565b945050604061218888828901612127565b935050606086013567ffffffffffffffff8111156121a9576121a8611a62565b5b6121b588828901611e67565b92509250509295509295909350565b7f4e487b7100000000000000000000000000000000000000000000000000000000600052602260045260246000fd5b6000600282049050600182168061220b57607f821691505b6020821081141561221f5761221e6121c4565b5b50919050565b7f4552433732313a20617070726f76656420717565727920666f72206e6f6e657860008201527f697374656e7420746f6b656e0000000000000000000000000000000000000000602082015250565b6000612281602c83611b2d565b915061228c82612225565b604082019050919050565b600060208201905081810360008301526122b081612274565b9050919050565b7f4552433732313a20617070726f76616c20746f2063757272656e74206f776e6560008201527f7200000000000000000000000000000000000000000000000000000000000000602082015250565b6000612313602183611b2d565b915061231e826122b7565b604082019050919050565b6000602082019050818103600083015261234281612306565b9050919050565b7f4552433732313a20617070726f76652063616c6c6572206973206e6f74206f7760008201527f6e6572206e6f7220617070726f76656420666f7220616c6c0000000000000000602082015250565b60006123a5603883611b2d565b91506123b082612349565b604082019050919050565b600060208201905081810360008301526123d481612398565b9050919050565b7f4552433732313a207472616e736665722063616c6c6572206973206e6f74206f60008201527f776e6572206e6f7220617070726f766564000000000000000000000000000000602082015250565b6000612437603183611b2d565b9150612442826123db565b604082019050919050565b600060208201905081810360008301526124668161242a565b9050919050565b7f4552433732313a206f776e657220717565727920666f72206e6f6e657869737460008201527f656e7420746f6b656e0000000000000000000000000000000000000000000000602082015250565b60006124c9602983611b2d565b91506124d48261246d565b604082019050919050565b600060208201905081810360008301526124f8816124bc565b9050919050565b7f4552433732313a2062616c616e636520717565727920666f7220746865207a6560008201527f726f206164647265737300000000000000000000000000000000000000000000602082015250565b600061255b602a83611b2d565b9150612566826124ff565b604082019050919050565b6000602082019050818103600083015261258a8161254e565b9050919050565b7f4e487b7100000000000000000000000000000000000000000000000000000000600052601160045260246000fd5b60006125cb82611d5b565b915063ffffffff8214156125e2576125e1612591565b5b600182019050919050565b7f4552433732314d657461646174613a2055524920717565727920666f72206e6f60008201527f6e6578697374656e7420746f6b656e0000000000000000000000000000000000602082015250565b6000612649602f83611b2d565b9150612654826125ed565b604082019050919050565b600060208201905081810360008301526126788161263c565b9050919050565b600081905092915050565b600061269582611b22565b61269f818561267f565b93506126af818560208601611b3e565b80840191505092915050565b60006126c7828561268a565b91506126d3828461268a565b91508190509392505050565b7f4552433732313a206f70657261746f7220717565727920666f72206e6f6e657860008201527f697374656e7420746f6b656e0000000000000000000000000000000000000000602082015250565b600061273b602c83611b2d565b9150612746826126df565b604082019050919050565b6000602082019050818103600083015261276a8161272e565b9050919050565b7f4552433732313a207472616e736665722066726f6d20696e636f72726563742060008201527f6f776e6572000000000000000000000000000000000000000000000000000000602082015250565b60006127cd602583611b2d565b91506127d882612771565b604082019050919050565b600060208201905081810360008301526127fc816127c0565b9050919050565b7f4552433732313a207472616e7366657220746f20746865207a65726f2061646460008201527f7265737300000000000000000000000000000000000000000000000000000000602082015250565b600061285f602483611b2d565b915061286a82612803565b604082019050919050565b6000602082019050818103600083015261288e81612852565b9050919050565b60006128a082611bdd565b91506128ab83611bdd565b9250828210156128be576128bd612591565b5b828203905092915050565b60006128d482611bdd565b91506128df83611bdd565b9250827fffffffffffffffffffffffffffffffffffffffffffffffffffffffffffffffff0382111561291457612913612591565b5b828201905092915050565b7f4552433732313a20617070726f766520746f2063616c6c657200000000000000600082015250565b6000612955601983611b2d565b91506129608261291f565b602082019050919050565b6000602082019050818103600083015261298481612948565b9050919050565b7f4552433732313a206d696e7420746f20746865207a65726f2061646472657373600082015250565b60006129c1602083611b2d565b91506129cc8261298b565b602082019050919050565b600060208201905081810360008301526129f0816129b4565b9050919050565b7f4552433732313a20746f6b656e20616c7265616479206d696e74656400000000600082015250565b6000612a2d601c83611b2d565b9150612a38826129f7565b602082019050919050565b60006020820190508181036000830152612a5c81612a20565b9050919050565b7f4552433732314d657461646174613a2055524920736574206f66206e6f6e657860008201527f697374656e7420746f6b656e0000000000000000000000000000000000000000602082015250565b6000612abf602c83611b2d565b9150612aca82612a63565b604082019050919050565b60006020820190508181036000830152612aee81612ab2565b9050919050565b7f4552433732313a207472616e7366657220746f206e6f6e20455243373231526560008201527f63656976657220696d706c656d656e7465720000000000000000000000000000602082015250565b6000612b51603283611b2d565b9150612b5c82612af5565b604082019050919050565b60006020820190508181036000830152612b8081612b44565b9050919050565b6000612b9282611bdd565b91507fffffffffffffffffffffffffffffffffffffffffffffffffffffffffffffffff821415612bc557612bc4612591565b5b600182019050919050565b7f4e487b7100000000000000000000000000000000000000000000000000000000600052601260045260246000fd5b6000612c0a82611bdd565b9150612c1583611bdd565b925082612c2557612c24612bd0565b5b828204905092915050565b6000612c3b82611bdd565b9150612c4683611bdd565b925082612c5657612c55612bd0565b5b828206905092915050565b7f4e487b7100000000000000000000000000000000000000000000000000000000600052603260045260246000fd5b600081519050919050565b600082825260208201905092915050565b6000612cb782612c90565b612cc18185612c9b565b9350612cd1818560208601611b3e565b612cda81611b71565b840191505092915050565b6000608082019050612cfa6000830187611c72565b612d076020830186611c72565b612d146040830185611dc2565b8181036060830152612d268184612cac565b905095945050505050565b600081519050612d4081611a93565b92915050565b600060208284031215612d5c57612d5b611a5d565b5b6000612d6a84828501612d31565b9150509291505056fea2646970667358221220cd686a8f534c0783f05f0d16e131df35c326abf6ef91a49f28e8cdb0064f2a0264736f6c634300080c0033",
  "immutableReferences": {},
  "source": "pragma solidity ^0.8.12;\r\n\r\nimport \"openzeppelin-solidity/contracts/token/ERC721/ERC721.sol\";\r\ncontract Condos is ERC721 {\r\n    uint32 public Id;\r\n    mapping (address => uint32) public MDTrack;\r\n    \r\n    constructor() ERC721(\"Condos Token\", \"CONDO\") IERC721Metadata() payable public {\r\n        Id = 0;\r\n    }\r\n    \r\n    mapping (uint256 => string) private _tokenURIs;\r\n    function _setTokenURI(uint256 tokenId, string memory _tokenURI) internal virtual{\r\n        require(_exists(tokenId), \"ERC721Metadata: URI set of nonexistent token\");\r\n        _tokenURIs[tokenId] = _tokenURI;\r\n    }\r\n\r\n    function createNFT(address receiver, string calldata metadata) external returns (uint32){\r\n        Id++;\r\n        _mint(receiver, Id);\r\n        _setTokenURI(Id, metadata);\r\n        MDTrack[receiver] = Id;\r\n        return Id;\r\n    }\r\n\r\n    function transferNFT(address sender, address receiver, uint32 transId, string calldata metadata) external {\r\n        transferFrom(sender, receiver, transId);\r\n        _setTokenURI(transId, metadata);\r\n        delete MDTrack[sender];\r\n        MDTrack[receiver] = Id;\r\n    }\r\n}\r\n\r\n    \r\n    \r\n",
  "sourcePath": "C:\\Users\\Lavoro\\Documents\\BlockchainProjects\\contracts\\Condos.sol",
  "compiler": {
    "name": "solc",
    "version": "0.8.12+commit.f00d7308.Emscripten.clang"
  },
  "schemaVersion": "3.4.6",
  "updatedAt": "2022-03-21T07:58:57.517Z",
  "networkType": "ethereum",
  "devdoc": {
    "kind": "dev",
    "methods": {
      "approve(address,uint256)": {
        "details": "See {IERC721-approve}."
      },
      "balanceOf(address)": {
        "details": "See {IERC721-balanceOf}."
      },
      "getApproved(uint256)": {
        "details": "See {IERC721-getApproved}."
      },
      "isApprovedForAll(address,address)": {
        "details": "See {IERC721-isApprovedForAll}."
      },
      "name()": {
        "details": "See {IERC721Metadata-name}."
      },
      "ownerOf(uint256)": {
        "details": "See {IERC721-ownerOf}."
      },
      "safeTransferFrom(address,address,uint256)": {
        "details": "See {IERC721-safeTransferFrom}."
      },
      "safeTransferFrom(address,address,uint256,bytes)": {
        "details": "See {IERC721-safeTransferFrom}."
      },
      "setApprovalForAll(address,bool)": {
        "details": "See {IERC721-setApprovalForAll}."
      },
      "supportsInterface(bytes4)": {
        "details": "See {IERC165-supportsInterface}."
      },
      "symbol()": {
        "details": "See {IERC721Metadata-symbol}."
      },
      "tokenURI(uint256)": {
        "details": "See {IERC721Metadata-tokenURI}."
      },
      "transferFrom(address,address,uint256)": {
        "details": "See {IERC721-transferFrom}."
      }
    },
    "version": 1
  },
  "userdoc": {
    "kind": "user",
    "methods": {},
    "version": 1
  }
}